{
  "contractName": "ListsStorage",
  "abi": [
    {
      "inputs": [
        {
          "internalType": "uint256",
          "name": "",
          "type": "uint256"
        }
      ],
      "name": "UserList",
      "outputs": [
        {
          "internalType": "uint256",
          "name": "id",
          "type": "uint256"
        },
        {
          "internalType": "string",
          "name": "name",
          "type": "string"
        },
        {
          "internalType": "uint8",
          "name": "age",
          "type": "uint8"
        },
        {
          "internalType": "address",
          "name": "account",
          "type": "address"
        }
      ],
      "stateMutability": "view",
      "type": "function",
      "constant": true
    },
    {
      "inputs": [
        {
          "internalType": "string",
          "name": "_name",
          "type": "string"
        },
        {
          "internalType": "uint8",
          "name": "_age",
          "type": "uint8"
        }
      ],
      "name": "addList",
      "outputs": [
        {
          "internalType": "uint256",
          "name": "",
          "type": "uint256"
        }
      ],
      "stateMutability": "nonpayable",
      "type": "function"
    },
    {
      "inputs": [],
      "name": "getList",
      "outputs": [
        {
          "components": [
            {
              "internalType": "uint256",
              "name": "id",
              "type": "uint256"
            },
            {
              "internalType": "string",
              "name": "name",
              "type": "string"
            },
            {
              "internalType": "uint8",
              "name": "age",
              "type": "uint8"
            },
            {
              "internalType": "address",
              "name": "account",
              "type": "address"
            }
          ],
          "internalType": "struct ListsStorage.User[]",
          "name": "",
          "type": "tuple[]"
        }
      ],
      "stateMutability": "view",
      "type": "function",
      "constant": true
    }
  ],
  "bytecode": "0x608060405234801561001057600080fd5b50610a30806100206000396000f3fe608060405234801561001057600080fd5b506004361061005e576000357c0100000000000000000000000000000000000000000000000000000000900480632186826914610063578063942b765a14610093578063babe1655146100b1575b600080fd5b61007d600480360381019061007891906105a9565b6100e4565b60405161008a9190610800565b60405180910390f35b61009b6101fd565b6040516100a891906107de565b60405180910390f35b6100cb60048036038101906100c691906105fd565b61037b565b6040516100db949392919061081b565b60405180910390f35b60008060008054905090506000600182019050600060405180608001604052808381526020018781526020018660ff1681526020013373ffffffffffffffffffffffffffffffffffffffff168152509080600181540180825580915050600190039060005260206000209060030201600090919091909150600082015181600001556020820151816001019080519060200190610182929190610480565b5060408201518160020160006101000a81548160ff021916908360ff16021790555060608201518160020160016101000a81548173ffffffffffffffffffffffffffffffffffffffff021916908373ffffffffffffffffffffffffffffffffffffffff16021790555050506000805490509250505092915050565b60606000805480602002602001604051908101604052809291908181526020016000905b82821015610372578382906000526020600020906003020160405180608001604052908160008201548152602001600182018054600181600116156101000203166002900480601f0160208091040260200160405190810160405280929190818152602001828054600181600116156101000203166002900480156102e75780601f106102bc576101008083540402835291602001916102e7565b820191906000526020600020905b8154815290600101906020018083116102ca57829003601f168201915b505050505081526020016002820160009054906101000a900460ff1660ff1660ff1681526020016002820160019054906101000a900473ffffffffffffffffffffffffffffffffffffffff1673ffffffffffffffffffffffffffffffffffffffff1673ffffffffffffffffffffffffffffffffffffffff168152505081526020019060010190610221565b50505050905090565b6000818154811061038b57600080fd5b9060005260206000209060030201600091509050806000015490806001018054600181600116156101000203166002900480601f01602080910402602001604051908101604052809291908181526020018280546001816001161561010002031660029004801561043d5780601f106104125761010080835404028352916020019161043d565b820191906000526020600020905b81548152906001019060200180831161042057829003601f168201915b5050505050908060020160009054906101000a900460ff16908060020160019054906101000a900473ffffffffffffffffffffffffffffffffffffffff16905084565b828054600181600116156101000203166002900490600052602060002090601f0160209004810192826104b657600085556104fd565b82601f106104cf57805160ff19168380011785556104fd565b828001600101855582156104fd579182015b828111156104fc5782518255916020019190600101906104e1565b5b50905061050a919061050e565b5090565b5b8082111561052757600081600090555060010161050f565b5090565b600082601f83011261053c57600080fd5b813561054f61054a82610898565b610867565b9150808252602083016020830185838301111561056b57600080fd5b610576838284610977565b50505092915050565b60008135905061058e816109cc565b92915050565b6000813590506105a3816109e3565b92915050565b600080604083850312156105bc57600080fd5b600083013567ffffffffffffffff8111156105d657600080fd5b6105e28582860161052b565b92505060206105f385828601610594565b9150509250929050565b60006020828403121561060f57600080fd5b600061061d8482850161057f565b91505092915050565b6000610632838361073f565b905092915050565b6106438161092e565b82525050565b6106528161092e565b82525050565b6000610663826108d8565b61066d81856108fb565b93508360208202850161067f856108c8565b8060005b858110156106bb578484038952815161069c8582610626565b94506106a7836108ee565b925060208a01995050600181019050610683565b50829750879550505050505092915050565b60006106d8826108e3565b6106e2818561090c565b93506106f2818560208601610986565b6106fb816109bb565b840191505092915050565b6000610711826108e3565b61071b818561091d565b935061072b818560208601610986565b610734816109bb565b840191505092915050565b600060808301600083015161075760008601826107a2565b506020830151848203602086015261076f82826106cd565b915050604083015161078460408601826107c0565b506060830151610797606086018261063a565b508091505092915050565b6107ab81610960565b82525050565b6107ba81610960565b82525050565b6107c98161096a565b82525050565b6107d88161096a565b82525050565b600060208201905081810360008301526107f88184610658565b905092915050565b600060208201905061081560008301846107b1565b92915050565b600060808201905061083060008301876107b1565b81810360208301526108428186610706565b905061085160408301856107cf565b61085e6060830184610649565b95945050505050565b6000604051905081810181811067ffffffffffffffff8211171561088e5761088d6109b9565b5b8060405250919050565b600067ffffffffffffffff8211156108b3576108b26109b9565b5b601f19601f8301169050602081019050919050565b6000819050602082019050919050565b600081519050919050565b600081519050919050565b6000602082019050919050565b600082825260208201905092915050565b600082825260208201905092915050565b600082825260208201905092915050565b600061093982610940565b9050919050565b600073ffffffffffffffffffffffffffffffffffffffff82169050919050565b6000819050919050565b600060ff82169050919050565b82818337600083830152505050565b60005b838110156109a4578082015181840152602081019050610989565b838111156109b3576000848401525b50505050565bfe5b6000601f19601f8301169050919050565b6109d581610960565b81146109e057600080fd5b50565b6109ec8161096a565b81146109f757600080fd5b5056fea2646970667358221220c1b7193844a39bf014cd4c38f0be7e5bb15f3673d61b98cce82432da461a7ee664736f6c63430007050033",
  "immutableReferences": {},
  "source": "// SPDX-License-Identifier: GPL-3.0\npragma solidity >=0.4.16 <0.9.0;\npragma experimental ABIEncoderV2;\n\ncontract ListsStorage {\n    // \n    struct User {\n        uint id;\n        string name;\n        uint8 age;\n        address account;\n    }\n\n    // \n    User[] public UserList; //publicgetter'[]'\n\n    function addList(string memory _name,uint8 _age) public returns (uint) {\n       uint count = UserList.length;\n       uint index = count + 1;\n       // indexid\n       UserList.push(User(index,_name,_age,msg.sender));\n       return UserList.length;\n    }\n\n    // This type is only supported in ABI coder v2. Use \"pragma abicoder v2;\"=>pragma experimental ABIEncoderV2;\n    function getList() public view returns(User[] memory) {\n        return UserList;\n    }\n}",
  "sourcePath": "/Users/dolphin/Desktop/web3/myapp/contracts/ListsStorage.sol",
  "compiler": {
    "name": "solc",
    "version": "0.7.5+commit.eb77ed08.Emscripten.clang"
  },
  "schemaVersion": "3.4.13",
  "updatedAt": "2023-03-19T03:39:18.949Z",
  "networkType": "ethereum",
  "devdoc": {
    "kind": "dev",
    "methods": {},
    "version": 1
  },
  "userdoc": {
    "kind": "user",
    "methods": {},
    "version": 1
  }
}