{
  "contractName": "SimpleStorage",
  "abi": [
    {
      "inputs": [
        {
          "internalType": "string",
          "name": "_name",
          "type": "string"
        },
        {
          "internalType": "uint8",
          "name": "_age",
          "type": "uint8"
        }
      ],
      "name": "set",
      "outputs": [],
      "stateMutability": "nonpayable",
      "type": "function"
    },
    {
      "inputs": [],
      "name": "getData",
      "outputs": [
        {
          "internalType": "string",
          "name": "",
          "type": "string"
        },
        {
          "internalType": "uint256",
          "name": "",
          "type": "uint256"
        }
      ],
      "stateMutability": "view",
      "type": "function",
      "constant": true
    },
    {
      "inputs": [
        {
          "internalType": "uint256",
          "name": "x",
          "type": "uint256"
        },
        {
          "internalType": "uint256",
          "name": "y",
          "type": "uint256"
        }
      ],
      "name": "test",
      "outputs": [
        {
          "internalType": "uint256",
          "name": "",
          "type": "uint256"
        }
      ],
      "stateMutability": "pure",
      "type": "function",
      "constant": true
    }
  ],
  "bytecode": "0x608060405234801561001057600080fd5b506103e2806100206000396000f3fe608060405234801561001057600080fd5b506004361061005e576000357c0100000000000000000000000000000000000000000000000000000000900480633bc5de3014610063578063dba171a0146100ed578063eb8ac921146101b5575b600080fd5b61006b610201565b6040518080602001838152602001828103825284818151815260200191508051906020019080838360005b838110156100b1578082015181840152602081019050610096565b50505050905090810190601f1680156100de5780820380516001836020036101000a031916815260200191505b50935050505060405180910390f35b6101b36004803603604081101561010357600080fd5b810190808035906020019064010000000081111561012057600080fd5b82018360208201111561013257600080fd5b8035906020019184600183028401116401000000008311171561015457600080fd5b91908080601f016020809104026020016040519081016040528093929190818152602001838380828437600081840152601f19601f820116905080830192505050505050509192919290803560ff1690602001909291905050506102bf565b005b6101eb600480360360408110156101cb57600080fd5b8101908080359060200190929190803590602001909291905050506102f4565b6040518082815260200191505060405180910390f35b60606000600160008054906101000a900460ff16818054600181600116156101000203166002900480601f0160208091040260200160405190810160405280929190818152602001828054600181600116156101000203166002900480156102aa5780601f1061027f576101008083540402835291602001916102aa565b820191906000526020600020905b81548152906001019060200180831161028d57829003601f168201915b505050505091508060ff169050915091509091565b81600190805190602001906102d5929190610301565b50806000806101000a81548160ff021916908360ff1602179055505050565b6000818301905092915050565b828054600181600116156101000203166002900490600052602060002090601f016020900481019282610337576000855561037e565b82601f1061035057805160ff191683800117855561037e565b8280016001018555821561037e579182015b8281111561037d578251825591602001919060010190610362565b5b50905061038b919061038f565b5090565b5b808211156103a8576000816000905550600101610390565b509056fea264697066735822122022860dc368b94994688294f1ee726c868fcc89cbe519815e5eca7845b868f2a164736f6c63430007050033",
  "immutableReferences": {},
  "source": "// SPDX-License-Identifier: GPL-3.0\npragma solidity >=0.4.16 <0.9.0;\n\ncontract SimpleStorage {\n    // 创建两个状态变量，默认storage数据类型，存在链上的\n    uint8 age;\n    string name;\n\n    function set(string memory _name,uint8 _age) public {\n        // string memory a;\n        name = _name;\n        age = _age;\n    }\n\n    // view（视图函数，只访问不修改）\n    function getData() public view returns (string memory,uint) {\n        return (name,age);\n    }\n\n    // pure（纯函数，不访问，不修改）\n    function test(uint x,uint y) public pure returns (uint){\n        return x+y;\n    }\n}",
  "sourcePath": "/Users/dolphin/Desktop/web3/myapp/contracts/SimpleStorage.sol",
  "compiler": {
    "name": "solc",
    "version": "0.7.5+commit.eb77ed08.Emscripten.clang"
  },
  "schemaVersion": "3.4.13",
  "updatedAt": "2023-03-19T03:39:18.871Z",
  "networkType": "ethereum",
  "devdoc": {
    "kind": "dev",
    "methods": {},
    "version": 1
  },
  "userdoc": {
    "kind": "user",
    "methods": {},
    "version": 1
  }
}